:020000040800F2
:1000000088070020A5020008AD020008AF02000822
:10001000B1020008B3020008B502000800000000A9
:10002000000000000000000000000000B70200080F
:10003000B902000800000000BB020008892E000879
:10004000BF020008BF020008BF020008BF0200088C
:10005000BF020008BF020008BF020008BF0200087C
:10006000BF020008BF020008BF020008BF0200086C
:10007000BF02000889060008BF020008BF0200088E
:10008000BF02000800000000CD030008BF02000806
:10009000BF020008BF020008BF020008BF0200083C
:1000A000BF020008BF020008BF020008BF0200082C
:1000B000BF020008BF020008BF020008BF0200081C
:1000C000BF020008BF020008BF020008BF0200080C
:1000D000BF020008BF020008BF020008BF020008FC
:1000E000BF020008BF020008BF020008BF020008EC
:1000F000BF020008BF020008BF02000800000000A5
:1001000000000000BF02000800000000BF0200085D
:10011000BF02000800000000BF020008BF02000884
:10012000BF020008BF020008BF020008BF020008AB
:10013000BF0200080000000000000000BF0200082D
:10014000BF020008BF02000800000000000000001D
:10015000000000000000000000000000000000009F
:10016000000000000000000000000000BF020008C6
:10017000BF020008000000000000000000000000B6
:1001800000000000BF0200080000000000000000A6
:10019000000000000000000000000000000000005F
:1001A0000000000000000000BF020008BF020008BD
:1001B000BF020008BF020008BF02000800000000E4
:1001C00000000000BF020008000000000000000066
:1001D000BF020008BF02000800F002F800F052F869
:1001E00014A696E8000CB244B344DA4501D100F0FD
:1001F00049F8BAE80F000FA696E83000A5EB040511
:1002000004EB0607AAEB0704A7F101074FEA15154F
:100210004FEA3414A4F10104AC4201D300F032F8E7
:1002200013F0010F18BFFB1A43F0010300F001F8AF
:10023000DBE718473835000058350000103A24BF76
:1002400078C878C1FAD8520724BF30C830C144BF3B
:1002500004680C6070470000704700000023002411
:1002600000250026103A28BF78C1FBD8520728BFC6
:1002700030C148BF0B6070471FB503F03FFA1FBD88
:1002800010B510BD00F06CF81146FFF7F5FF02F055
:10029000A9FF00F08AF803B4FFF7F2FF03BC00F0F7
:1002A0008DF800000948804709480047FEE7FEE74F
:1002B000FEE7FEE7FEE7FEE7FEE7FEE7FEE7FEE716
:1002C00004480549054A064B704700000D2F0008F9
:1002D000D901000888010020880700208803002039
:1002E000880300204FF0000200B51346944696465E
:1002F000203922BFA0E80C50A0E80C50B1F1200139
:10030000BFF4F7AF090728BFA0E80C5048BF0CC0E6
:100310005DF804EB890028BF40F8042B08BF704744
:1003200048BF20F8022B11F0804F18BF00F8012BB6
:10033000704770477047704710B500F009F80068C3
:1003400010BD10B5044600F003F8046010BD0000B5
:1003500000487047380000200048704738000020EF
:100360007546FFF7F9FFAE4605006946534620F093
:100370000700854618B020B5FFF7A2FFBDE8204072
:100380004FF000064FF000074FF000084FF0000B51
:10039000AC46ACE8C009ACE8C009ACE8C009ACE8C0
:1003A000C00921F007018D46704710B50446AFF330
:1003B00000802046BDE81040FFF76DBF01491820BE
:1003C000ABBEFEE7260002007047000080B586B095
:1003D0004FF0A04000F052FF00284FD0FFE74FF051
:1003E000A040019000F08AFE01980921029100F0DE
:1003F000C9FE0299ADF8160040F20010C5F20000E7
:10040000039000F0BFFE01460398ADF8141040F2CF
:100410000F1100F0B7FEADF81200BDF9160040F262
:100420002C02C2F200021188401A00EE100AB8EE47
:10043000C00A9FED191A20EE010A40F29800C2F29C
:10044000000080ED040ABDF914105388C91A00EEAB
:10045000101AB8EEC00A20EE010A80ED050ABDF9B7
:1004600012109288891A00EE101AB8EEC00A20EE17
:10047000010A80ED060A00F0EBFAFFE74FF0A0401A
:1004800000F0F4FE28B1FFE74FF0A04000F026FE98
:10049000FFE706B080BD00BFFF3F4E3D80B582B094
:1004A0000190019800F0FAFE50B9FFE7019800F0C2
:1004B00035FE019800F056FE012002F007F8FFE734
:1004C00002B080BD80B58EB04FF4005000F04CFFFC
:1004D00040F20030C5F200004FF4403100F002FF5E
:1004E00040F20010C5F200000D904FF0A0400C90BB
:1004F00000200B90FFE70B9801281DDCFFE70B990C
:100500000CA80A9050F82100FFF7C8FF0A980B9931
:1005100050F821007F2100F001FFFFE70B990CA8A4
:1005200050F8210000F0B2FE08B1FFE7F6E7FFE760
:100530000B9801300B90DEE74FF0A04007900021B0
:10054000089100F0DDFE07988021019100F05CFE2B
:100550000199079800F04AFE0798089900F022FEDA
:1005600007980921029142F20002C3F290620092C0
:1005700000F026FE009907980122069200F096FEF0
:10058000089940F20010C5F20000049000F0B8FE97
:100590000199049800F038FE0199049800F026FEB5
:1005A0000498069900F0FEFD029904980022C4F216
:1005B0002132039200F004FE03990498069A00F099
:1005C00075FE049840F20F110022C4F684320592A1
:1005D00000F0F6FD04980599069A00F067FE07986A
:1005E00000F0B6FD08991220099002F069FD099803
:1005F00002F036FD0EB080BD40F29800C2F200005D
:1006000090ED021A90ED030A9FED1C2A20EE020ADB
:1006100030EE010A80ED020A90ED020A9FED181AF1
:10062000B4EE410AF1EE10FA0DDDFFE740F298005A
:10063000C2F2000090ED020A9FED121A30EE010A9C
:1006400080ED020AFFE740F29800C2F2000090ED50
:10065000020AB5EE400AF1EE10FA0DDAFFE740F2B9
:100660009800C2F2000090ED020A9FED051A30EEEC
:10067000010A80ED020AFFE7704700BF17B7513843
:10068000DB0FC940DB0FC9C080B584B00020C4F2C5
:10069000020000F03FFFE8B1FFE70020C4F20200D3
:1006A000019000F0DFFE0198022100F0EBFE44F221
:1006B0000040C4F20100029001F098FB0298002172
:1006C000039101F0C5FE039840F28011C2F20001CF
:1006D0000870FFE704B080BD80B590B04FF47A7029
:1006E0000F9000200E900D900C90122002F09CFCB8
:1006F000FFE70820C5F200000068C00F08B1FFE75F
:10070000F7E7FFE740F20810C5F200000068C00FED
:1007100008B1FFE7F6E74FF0A04000F091FD40F28E
:100720000010C5F2000000F08BFDFFE70820C5F2C5
:10073000000000680007002801D5FFE7F6E7FFE7A3
:1007400040F20810C5F2000000680007002801D53B
:10075000FFE7F5E74C21C5F20001086820F4C070FE
:10076000086040F24C11C5F20001086820F4C07026
:1007700008604FF0A0400021079100F045FD079967
:1007800040F20010C5F2000000F03EFD0820C5F266
:1007900000000068C00728B9FFE74FF0A04000F054
:1007A000C9FCFFE740F20810C5F200000068C0076E
:1007B00038B9FFE740F20010C5F2000000F0BAFCC3
:1007C000FFE7FFE74FF0A04000F048FD08B9FFE762
:1007D000F8E7FFE740F20010C5F2000000F03EFD30
:1007E00008B9FFE7F6E700200B90FFE70B98B0F59C
:1007F0007A7F80F28780FFE74FF0A040059000F0FD
:1008000075FC059800F082FC40F20010C5F2000073
:10081000069000F06BFC069800F078FC0820C5F20A
:100820000000016841F00801016000680A904C2056
:10083000C5F200000068099040F20811C5F20001FD
:10084000086840F00800086044F24020C0F20F0041
:100850000890FFE74FF0A0400168002049060029FA
:10086000049008D4FFE7089801380890002818BFC2
:1008700001200490FFE70498C00708B1FFE7E9E70B
:10088000089808B9FFE73DE044F24020C0F20F00AD
:100890000890FFE740F20010C5F200000168002058
:1008A00049060029039008D4FFE70898013808900A
:1008B000002818BF01200390FFE70398C00708B184
:1008C000FFE7E7E7089808B9FFE71BE08020C5F2DB
:1008D000000001680E9808440E9040F28010C5F2A6
:1008E000000001680D9808440D9040F28410C5F294
:1008F000000001680C9808440C90FFE70B98013049
:100900000B9073E70E9844F6D352C1F2620250FB8B
:1009100002F1880900EBD17040F22C01C2F2000113
:1009200008800D9850FB02F3980900EBD3704880C3
:100930000C9850FB02F2900900EBD27088804FF0C7
:10094000A040019000F07CFC40F20010C5F20000D5
:10095000029000F075FC01988021009100F054FC99
:100960000099019800F042FC0099029800F04CFCBC
:100970000099029800F03AFC019800F0C7FB029839
:1009800000F0C4FB122002F06BFB019800F04AFC5F
:10099000029800F047FC10B080BD000080B584B024
:1009A00040F20010C5F2000003904FF0A04002900A
:1009B00000200190FFE70198012820DCFFE7019962
:1009C00002A850F82100009000988068C00770B914
:1009D000FFE7009800F07AFB009800F0ABFBFFE720
:1009E000009800F03BFC08B9FFE7F9E7FFE7009843
:1009F00000F018FCFFE7019801300190DBE704B03C
:100A000080BD000081B040F29800C2F200000021D9
:100A1000017049F69A12C4F24912C2618160C16044
:100A200090ED070A9FED091A20EE010A8DED000AEC
:100A3000009840F20001C2F20001C860009840F244
:100A40001401C2F20001C86001B070473ACD133FF3
:100A500080B582B040F29800C2F200000169C16224
:100A600090ED041A90ED050A30EE000A30EE010A0E
:100A70009FED591A20EE010A80ED0C0A0078022839
:100A80000DD1FFE740F29801C2F2000101914868E0
:100A9000C860FFF7B1FD01998868086224E040F260
:100AA0009800C2F200000078032809D1FFE7FFF7A1
:100AB000A3FD40F29801C2F200018868086212E0CA
:100AC00040F29800C2F200000078012807D1FFE749
:100AD00040F29801C2F200010020086202E002F038
:100AE000C5F977E0FFE7FFE740F29800C2F20000A7
:100AF000009090ED080A02F07BFC009880ED090A56
:100B000090ED080A02F0CCFB009880ED0A0A90ED07
:100B1000093A90ED0A2A90ED0B0A90ED0C1A21EE9D
:100B2000031A20EE020A30EE010A80ED0D0A90ED64
:100B3000092A90ED0A3A90ED0B1A90ED0C0A20EE7E
:100B4000030A21EE021A30EE410A80ED0E0AD0EDC2
:100B50000D0A90ED0F0A40F20000C2F2000002F010
:100B600077F8009880ED110AD0ED0E0A90ED100A8A
:100B700040F21400C2F2000002F06AF8009880ED22
:100B8000120A90ED093A90ED0A2A90ED110A90EDC3
:100B9000121A21EE031A20EE020A30EE410A80ED0D
:100BA000130A90ED092A90ED0A3A90ED110A90EDA2
:100BB000121A21EE031A20EE020A30EE010A80ED2D
:100BC000140A90ED071A90ED130AD0ED140A00F004
:100BD00005F8FFE702B080BD3ACD133F80B590B075
:100BE00004A8019080ED0B0AC0ED0A0A80ED091AF5
:100BF0000F990C9190ED0B0A90ED0A1A9FED7C3A3B
:100C000021EE031ABEEE002A8DED002A20EE020A24
:100C100030EE010A80ED070A90ED0B0A90ED0A1AFA
:100C200021EE031A20EE020A30EE410A80ED060A98
:100C300090ED080AD0ED070A90ED061A09A808A958
:100C400002F082FA9DED001A019890ED040A90EDF1
:100C5000052A30EE020A20EE010A80ED030A90ED2B
:100C6000031A90ED080A30EE010A80ED080A90EDB3
:100C7000031A90ED070A30EE010A80ED070A90EDA5
:100C8000031A90ED060A30EE010A80ED060A90ED97
:100C9000080A90ED091A80EE010AB6EE001A30EE4D
:100CA000010A80ED020A90ED070A90ED092A80EE14
:100CB000020A30EE010A80ED010A90ED060A90ED7D
:100CC000092A80EE020A30EE010A80ED000A90ED5A
:100CD000020A9FED481AB4EE410AF1EE10FA06DD61
:100CE000FFE743F23330C3F673700690FFE70198D5
:100CF00090ED020A9FED401AB4EE410AF1EE10FAAF
:100D000006DAFFE74DF20A70C3F623400690FFE7CC
:100D1000019890ED010A9FED371AB4EE410AF1EE09
:100D200010FA06DDFFE743F23330C3F67370059027
:100D3000FFE7019890ED010A9FED2F1AB4EE410AEA
:100D4000F1EE10FA06DAFFE74DF20A70C3F623401F
:100D50000590FFE7019890ED000A9FED261AB4EE8A
:100D6000410AF1EE10FA06DDFFE743F23330C3F635
:100D700073700490FFE7019890ED000A9FED1E1A32
:100D8000B4EE410AF1EE10FA06DAFFE74DF20A700E
:100D9000C3F623400490FFE7019890ED020A9FED0F
:100DA000171A20EE010ABDEEC00A10EE101AADF8B7
:100DB0000E1090ED010A20EE010ABDEEC00A10EE01
:100DC000101AADF80C1090ED000A20EE010ABDEEED
:100DD000C00A10EE100AADF80A00BDF80E00BDF80A
:100DE0000C10BDF80A2002F0D5F810B080BD00BF8D
:100DF000D7B35D3F3333733F0AD7233C00D004455C
:100E000080B59CB00220049000F0C0FA4FF400308E
:100E100000F0F2FA0120009000F094FA042000F0B3
:100E200091FA0098049A002107911B911A91199147
:100E3000189117911691102302931693179203227B
:100E40000592189219911A911B9040F20040C4F635
:100E5000000016A900F08CFC0798159014901390D0
:100E600012901190ADF844001290D3211391149078
:100E7000159044F20040C4F20100019011A901F064
:100E800019F80099079A019810920F920E920D92FC
:100E90000C920B920A920992602309930A910D9287
:100EA0000C9209AA01F02EFA0099019801F036F986
:100EB000019800F0EBFF019800F0ACFF019800F002
:100EC000DBFF04990020C4F202000390522200F0DC
:100ED000FBFB029A0398049900F058FB03980499CD
:100EE000079A00F01FFB03980499079A00F0AAFBE9
:100EF00003980499079A00F0CFFB03980499802285
:100F000000F070FB039804994FF4807200F000FC2D
:100F1000039804994FF4806200F07CFB03980499D5
:100F200044F23442C4F2010200F0A4FB0398049995
:100F300000F0DEFA05990D20069002F0E3F806981D
:100F400002F0A6F807980890FFE7089849280DDCFA
:100F5000FFE7089A40F2EC01C2F20001002021F8FC
:100F60001200FFE7089801300890EEE71CB080BD42
:100F700085B08DF813008DF812108DF811208DF8C2
:100F800010309DF81300012801DBFFE761E09DF8B8
:100F9000130000EB4000C000039000200290FFE728
:100FA0000298072817DCFFE79DF81110029A8020AD
:100FB00020FA02F34420194218BF882003990A44FA
:100FC00040F2EC01C2F2000121F81200FFE70298A2
:100FD00001300290E4E700200190FFE70198072824
:100FE00018DCFFE79DF81210019A802020FA02F326
:100FF0004420194218BF882003990A4440F2EC01AA
:10100000C2F2000101EB42010882FFE701980130C2
:101010000190E3E700200090FFE70098072818DC24
:10102000FFE79DF81010009A802020FA02F3442078
:10103000194218BF882003990A4440F2EC01C2F219
:10104000000101EB42010884FFE7009801300090A5
:10105000E3E705B07047000080B584B040F280102F
:10106000C2F20000007808B1FFE72CE040F28011E6
:10107000C2F20001012008700020C4F202000190B9
:101080000221029100F010FA0198029940F2EC025C
:10109000C2F2000200F094FA019802994A2200F08C
:1010A00059FA019800F0E6F90198029900F00EFA59
:1010B00044F20040C4F20100039000F0C9FE03981E
:1010C00000F0B2FEFFE704B080BD000081B00090E8
:1010D00000990120086001B07047000081B00090C5
:1010E00000990420086001B07047000081B00090B2
:1010F00000992020086001B07047000081B0009086
:1011000000994020086001B07047000081B0009055
:1011100000994020086001B07047000081B0009045
:10112000009988684FF6C072C5F6FF72104088605B
:1011300001B0704781B00090009880684FF6C07190
:10114000C7F6FF71084001300099886001B0704710
:1011500081B000900099486840F04000486001B0BC
:101160007047000081B000900098806840F0805087
:101170004FF6C071C7F6FF7108400099886001B052
:101180007047000083B0029001910298019901F428
:10119000407100EB9110803000900098006880B2A0
:1011A00003B0704782B0019000910198C06C20F0AC
:1011B0000300009908430199C86402B07047000019
:1011C00083B00290019100920298C06C019901F0E5
:1011D0001F021F21914088430099C1F3846191400F
:1011E00008430299C86403B07047000082B00190C0
:1011F00000910198C06C20F4C070009908430199D7
:10120000C86402B07047000082B00190009101985C
:10121000C06C20F4FE70009908430199C86402B0C4
:101220007047000081B00090009880684FF6C07150
:10123000C7F6FF71084008300099886001B0704718
:1012400081B00090009880684FF6C071C7F6FF71BA
:10125000084020300099886001B0704781B000904C
:101260000098006800F0010001B0704781B0009064
:1012700000980068C0F3800001B0704781B0009012
:1012800000980068C0F3801001B0704781B00090F2
:1012900000988068C00F01B07047000081B00090D6
:1012A00000988068C0F3007001B0704784B003906C
:1012B000029101920398029901F0007100EBD15064
:1012C00014300090009800680299C1F3045207217D
:1012D000914088430199914008430099086004B007
:1012E0007047000082B0019000910198806820F45E
:1012F0007C10009908430199886002B07047000093
:1013000082B0019000910198C06820F01800009907
:1013100008430199C86002B07047000082B0019094
:101320000091019880684FF6C071C3F6FF710140CB
:10133000009800F08040084400F100400199886066
:1013400002B0704782B00190019A41F24800C4F2A5
:101350000200016811430160006801990840009093
:10136000009802B07047000082B00190019A41F2EB
:101370004C00C4F202000168114301600068019949
:1013800008400090009802B07047000082B00190C1
:10139000019A41F24C00C4F202000168114301605D
:1013A0000068019908400090009802B07047000062
:1013B00082B00190019A41F24C00C4F2020001682F
:1013C000114301600068019908400090009802B044
:1013D0007047000082B00190019A41F24C00C4F2C3
:1013E0000200016811430160006801990840009003
:1013F000009802B07047000082B00190019A41F25B
:101400006000C4F2020001681143016000680199A4
:1014100008400090009802B07047000082B0019030
:10142000019A41F26000C4F20200016811430160B8
:101430000068019908400090009802B070470000D1
:1014400082B00190019A41F26000C4F2020001688A
:10145000114301600068019908400090009802B0B3
:101460007047000081B0009000994FF40070486010
:1014700001B0704781B0009000994FF4007048604F
:1014800001B0704783B002900191029800900099DA
:10149000019A43F23870C0F60000825C885820F050
:1014A0000100885003B0704783B002900191029808
:1014B00000900099019A43F23E70C0F60000825CF1
:1014C000885820F00100885003B0704783B0029024
:1014D0000191029800900099019A43F23E70C0F683
:1014E0000000825C885840F00100885003B07047CB
:1014F00083B002900191029800900099019A43F202
:101500003E70C0F60000825C885840F002008850AF
:1015100003B0704781B0009000980068C0F340208D
:1015200001B0704784B0039002910192039800903B
:101530000098029943F23E72C0F60002515C405896
:1015400020F44050019908430099029BD25C8850D6
:1015500004B0704784B00390029101920398009008
:101560000098029943F23E72C0F60002515C0844B2
:1015700040684FF6FF718843019908430099029B28
:10158000D25C1144486004B07047000084B00390FE
:1015900002910192039800900098029943F23E72E2
:1015A000C0F60002515C405844F210018843019992
:1015B00008430099029BD25C885004B07047000039
:1015C00084B00390029101920398009001980099D1
:1015D000029B43F23E72C0F60002D25C1144C86026
:1015E00004B0704784B00390029101920398009078
:1015F0000098029943F23E72C0F60002515C4058D6
:1016000020F08000019908430099029BD25C885029
:1016100004B0704784B00390029101920398009047
:101620000098029943F23E72C0F60002515C4058A5
:1016300020F44060019908430099029BD25C8850D5
:1016400004B0704784B00390029101920398009017
:101650000098029943F23E72C0F60002515C405875
:1016600020F02000019908430099029BD25C885029
:1016700004B0704784B003900291019203980090E7
:1016800001980099029B43F23E72C0F60002D25CC0
:101690001144886004B0704784B0039002910192B5
:1016A000039800900098029943F23E72C0F600023F
:1016B000515C405820F04000019908430099029B7A
:1016C000D25C885004B0704784B0039002910192BC
:1016D00003980021C4F2020141406FF0070000EAC4
:1016E000D110009002988000009900EB810040F634
:1016F0000002C4F20202805820F0FF000199084362
:1017000002998900009B01EB8301885004B0704767
:1017100084B003900291019203980090009802997E
:1017200043F23E72C0F60002515C405820F4407013
:10173000019908430099029BD25C885004B070471D
:1017400042F20001C4F20201086840F480700860AF
:101750007047000081B0009042F20001C4F2020123
:10176000086820F00F00009A1043086001B070472D
:1017700080B586B0039002910298006890FAA0F0BC
:101780000490049820B9FFE720208DF8170005E0A9
:101790000498B0FA80F08DF81700FFE79DF8170065
:1017A0000190FFE7029800680199C84000284AD0DC
:1017B000FFE702980068019A0121914008400090DB
:1017C0000098E0B3FFE702984068012805D0FFE7E2
:1017D0000298406802280DD1FFE703980099029A09
:1017E000926800F03DF90398029A1168D26800F0FF
:1017F000E9F8FFE703980099029A126900F0F2F8FD
:1018000002984068022813D1FFE70098FF2807D804
:10181000FFE703980099029A526900F017F806E072
:1018200003980099029A526900F04EF8FFE7FFE72B
:1018300003980099029A526800F086F8FFE7019831
:1018400001300190AEE7002006B080BD8AB005905F
:10185000049103920598006A0290049890FAA0F00F
:101860000890089820B9FFE720208DF8270005E0B0
:101870000898B0FA80F08DF82700FFE702989DF8ED
:1018800027108A000F21914088430090039801900F
:10189000049890FAA0F00690069820B9FFE720205F
:1018A0008DF81F0005E00698B0FA80F08DF81F0053
:1018B000FFE7009801999DF81F209200914008438E
:1018C000059908620AB070478AB0059004910392A6
:1018D0000598406A02900498000A90FAA0F00890D7
:1018E000089820B9FFE720208DF8270005E0089828
:1018F000B0FA80F08DF82700FFE702989DF82710D6
:101900008A000F2191408843009003980190049829
:10191000000A90FAA0F00690069820B9FFE7202070
:101920008DF81F0005E00698B0FA80F08DF81F00D2
:10193000FFE7009801999DF81F209200914008430D
:10194000059948620AB070478AB0059004910392E5
:10195000059800680290049890FAA0F00890089802
:1019600020B9FFE720208DF8270005E00898B0FA9D
:1019700080F08DF82700FFE702989DF827104A00B5
:10198000032191408843009003980190049890FAB5
:10199000A0F00690069820B9FFE720208DF81F00E0
:1019A00005E00698B0FA80F08DF81F00FFE7009878
:1019B00001999DF81F205200914008430599086045
:1019C0000AB0704783B0029001910092029840687B
:1019D00001998843009A514308430299486003B033
:1019E000704700008AB00590049103920598C06882
:1019F0000290049890FAA0F00890089820B9FFE7A8
:101A000020208DF8270005E00898B0FA80F08DF8C6
:101A10002700FFE702989DF827104A000321914014
:101A20008843009003980190049890FAA0F00690E3
:101A3000069820B9FFE720208DF81F0005E00698E2
:101A4000B0FA80F08DF81F00FFE7009801999DF82B
:101A50001F205200914008430599C8600AB07047A2
:101A60008AB00590049103920598806802900498CA
:101A700090FAA0F00890089820B9FFE720208DF890
:101A8000270005E00898B0FA80F08DF82700FFE7FE
:101A900002989DF827104A00032191408843009046
:101AA00003980190049890FAA0F00690069820B947
:101AB000FFE720208DF81F0005E00698B0FA80F0BF
:101AC0008DF81F00FFE7009801999DF81F20520034
:101AD00091400843059988600AB0704780B582B08C
:101AE000019001984FF47A7100F002F802B080BDC5
:101AF00082B00190009101980099B0FBF1F001389B
:101B00004EF21401CEF2000108604EF21801CEF23E
:101B10000001002008604EF21001CEF20001052005
:101B2000086002B07047000081B00090009908681A
:101B300020F00100086001B07047000081B0009003
:101B40000099086840F00100086001B0704700008B
:101B500082B001900091019800684FF29F71CFF61A
:101B6000F9710840009908430199086002B0704774
:101B700082B0019000910198006800996FF02002F6
:101B800042EA5102104008430199086002B07047D0
:101B900082B0019000910198006820F00C0000993B
:101BA00008430199086002B07047000082B00190BC
:101BB00000910198006820F4E030009908430199F1
:101BC000086002B07047000041F20800C4F2020051
:101BD000006800F00C00704741F20001C4F20201FD
:101BE000086840F4803008607047000041F200004F
:101BF000C4F202000068C0F34040704784B0039014
:101C000002910192009341F20C01C4F202010868B2
:101C100048F20C02CFF6FF121040039A029B1A43BF
:101C2000019B42EA0322009B1A431043086004B060
:101C30007047000041F20001C4F20201086840F060
:101C4000807008607047000041F20C01C4F202018C
:101C5000086840F0807008607047000041F20000A2
:101C6000C4F202000068C0F34060704781B0009089
:101C700041F20801C4F20201086820F0F000009A65
:101C80001043086001B0704781B0009041F2080134
:101C9000C4F20201086820F4E060009A1043086072
:101CA00001B0704781B0009041F20801C4F2020116
:101CB000086820F46050009A1043086001B0704733
:101CC00081B0009041F20801C4F20201086820F0DE
:101CD0000300009A1043086001B0704781B0009083
:101CE000009840F22801C2F20001086001B070477C
:101CF00083B002900191002000900198007B8DF844
:101D00000000009820F44070019989680843009011
:101D1000009820F480600199496808430090009879
:101D200020F400600199096808430090009820F4AD
:101D300080500199C98908430090009820F4005010
:101D40000199096908430090009820F480400199A6
:101D5000C96A08430090009820F4702001994969ED
:101D600008430090009820F0805001998969084349
:101D70000090029842F60041C4F20101884208D066
:101D8000FFE7029843F20041C4F2010188421DD1ED
:101D9000FFE7009820F470000199496A0843009019
:101DA000009820F080700199C9690843009000985C
:101DB00020F000700199096A08430090009820F013
:101DC00000500199896A08430090FFE70098029942
:101DD0004864002003B0704781B000900099486CBF
:101DE00020F40040486401B07047000081B00090CA
:101DF0000099086820F00100086001B070470000F9
:101E000081B000900099086820F00100086001B0DE
:101E10007047000081B000900099C86820F480707D
:101E2000C86001B07047000081B000900099486C14
:101E300040F40040486401B07047000081B0009059
:101E40000099486C40F40040486401B070470000BD
:101E500081B000900099086840F00100086001B06E
:101E60007047000081B000900099086840F00100C0
:101E7000086001B07047000081B000900099C86808
:101E800040F40070C86001B07047000081B000905D
:101E90000099C86840F48070C86001B070470000C5
:101EA00081B000900099486940F00100486101B09C
:101EB0007047000080B584B00390029103980068D9
:101EC0000190039842F60041C4F2010188421DD0FE
:101ED000FFE70398B0F1804F18D0FFE7039840F276
:101EE0000041C4F20001884210D0FFE7039840F699
:101EF0000001C4F20001884208D0FFE7039843F2D2
:101F00000041C4F20101884208D1FFE7019820F0A6
:101F100070000299496808430190FFE7039842F670
:101F20000041C4F20101884235D0FFE70398B0F1C7
:101F3000804F30D0FFE7039840F20041C4F2000127
:101F4000884228D0FFE7039840F60001C4F2000160
:101F5000884220D0FFE7039843F20041C4F2010118
:101F6000884218D0FFE7039844F20001C4F201014F
:101F7000884210D0FFE7039844F20041C4F2010107
:101F8000884208D0FFE7039844F60001C4F201013B
:101F9000884208D1FFE7019820F440700299C9688F
:101FA00008430190FFE7019803990860039802999C
:101FB000896800F045FA03980299098800F058FAF8
:101FC000039842F60041C4F20101884220D0FFE7A5
:101FD000039843F20041C4F20101884218D0FFE7A0
:101FE000039844F20001C4F20101884210D0FFE7D7
:101FF000039844F20041C4F20101884208D0FFE78F
:10200000039844F60001C4F20101884206D1FFE7BB
:1020100003980299096900F033FAFFE70398FFF784
:102020003FFF002004B080BD8CB00B900A910A984D
:10203000012803D1FFE70020079051E00A98042807
:1020400003D1FFE70120069047E00A98102803D14A
:10205000FFE7022005903DE00A98402803D1FFE702
:102060000320049033E00A98B0F5807F03D1FFE7A6
:102070000420039028E00A98B0F5806F03D1FFE7B1
:10208000052002901DE00A98B0F5805F03D1FFE7BC
:102090000620019012E00A98B0F5804F03D1FFE7C7
:1020A0000720009007E00A990920B1F5803F08BF9A
:1020B00008200090FFE700980190FFE70198029048
:1020C000FFE702980390FFE703980490FFE7049866
:1020D0000590FFE705980690FFE706980790FFE751
:1020E00007988DF827000B989DF8272043F24E7132
:1020F000C0F60001895C0844183008909DF827104C
:1021000043F26270C0F60000415C042000FA01F264
:1021100008990868904308600CB070478CB00B9029
:102120000A910A98012803D1FFE70020079051E0A7
:102130000A98042803D1FFE70120069047E00A9897
:10214000102803D1FFE7022005903DE00A984028BF
:1021500003D1FFE70320049033E00A98B0F5807FB5
:1021600003D1FFE70420039028E00A98B0F5806FC0
:1021700003D1FFE7052002901DE00A98B0F5805FCB
:1021800003D1FFE70620019012E00A98B0F5804FD6
:1021900003D1FFE70720009007E00A990920B1F575
:1021A000803F08BF08200090FFE700980190FFE7FC
:1021B00001980290FFE702980390FFE703980490CC
:1021C000FFE704980590FFE705980690FFE706985B
:1021D0000790FFE707988DF827000B989DF82720B8
:1021E00043F24471C0F60001895C0844183008903D
:1021F0009DF8271043F25870C0F60000415C08209B
:1022000000FA01F208990868104308600CB07047A2
:102210008CB00B900A910A98012803D1FFE70020A7
:10222000079051E00A98042803D1FFE701200690A7
:1022300047E00A98102803D1FFE7022005903DE00F
:102240000A98402803D1FFE70320049033E00A985E
:10225000B0F5807F03D1FFE70420039028E00A98BF
:10226000B0F5806F03D1FFE7052002901DE00A98CA
:10227000B0F5805F03D1FFE70620019012E00A98D5
:10228000B0F5804F03D1FFE70720009007E00A99DF
:102290000920B1F5803F08BF08200090FFE70098B3
:1022A0000190FFE701980290FFE702980390FFE793
:1022B00003980490FFE704980590FFE705980690BF
:1022C000FFE706980790FFE707988DF827000B981F
:1022D0009DF8272043F24E71C0F60001895C084446
:1022E000183008909DF8271043F26270C0F6000085
:1022F000415C082000FA01F2089908681043086060
:102300000CB0704780B586B005900491039201200F
:102310008DF80B0004980190012818D0FFE7019870
:1023200010281BD0FFE70198B0F5807F1DD0FFE794
:102330000198B0F5805F1FD0FFE70198B0F5803FAE
:1023400021D0FFE70198B0F5801F23D029E0059840
:10235000039900F0E3F88DF80B0023E0059803994A
:1023600000F064F98DF80B001CE00598039900F06B
:10237000E9F98DF80B0015E00598039900F06CFA67
:102380008DF80B000EE00598039900F0F1FA8DF836
:102390000B0007E00598039900F054FB8DF80B0043
:1023A00000E0FFE79DF80B0006B080BD82B0019011
:1023B000009100980199486302B0704782B0019083
:1023C000009100980199486302B0704782B0019073
:1023D000009100980199886302B0704782B0019023
:1023E000009100980199886302B0704782B0019013
:1023F000009100980199C86302B0704782B00190C3
:10240000009100980199C86302B0704782B00190B2
:10241000009100980199086402B0704782B0019061
:1024200000910198806C00980199886402B070470F
:1024300082B00190009100980199C86402B0704781
:1024400082B00190009100980199C86202B0704773
:1024500082B00190009100980199486202B07047E3
:1024600082B00190009100980199486202B07047D3
:1024700082B00190009100980199886202B0704783
:1024800082B00190009100980199086302B07047F2
:1024900082B001900091019840684FF68F71CFF69D
:1024A000FF510840009908430199486002B0704705
:1024B00082B0019000910198406820F4700000996A
:1024C00008430199486002B07047000083B0029051
:1024D0004EF21000CEF200000068019001980298C0
:1024E00000900098013020B1FFE700980130009083
:1024F000FFE7FFE7009870B1FFE74EF21000CEF261
:1025000000000068C003002804D5FFE700980138E8
:102510000090FFE7EEE703B07047000080B586B09B
:10252000059004910599086A20F001000862059859
:10253000006A0290059840680190059880690390B0
:10254000039820F00300039003984FF68F71CFF6A5
:10255000FE7108400499096808430390029820F02E
:1025600002000499096908430290029820F00100D2
:102570000499496808430290059842F60041C4F264
:102580000101884220D0FFE7059843F20041C4F2E0
:102590000101884218D0FFE7059844F20001C4F217
:1025A0000101884210D0FFE7059844F20041C4F2CF
:1025B0000101884208D0FFE7059844F60001C4F203
:1025C0000101884220D1FFE7029820F00800049919
:1025D000496940EA81000290029820F004000499C1
:1025E000896840EA81000290019820F48070049983
:1025F000896908430190019820F400700499C96921
:1026000040EA41000190FFE701980599486003986E
:102610000599886105980499C968FFF7CFFE02986B
:1026200005990862002006B080BD000080B586B024
:10263000059004910599086A20F010000862059839
:10264000006A02900598406801900598806903909F
:10265000039820F440700390039848F6FF71CFF67A
:10266000FF6108400499096840EA0120039002983C
:1026700020F020000499096940EA011002900298B4
:1026800020F010000499496840EA01100290059872
:1026900042F60041C4F20101884220D0FFE70598CC
:1026A00043F20041C4F20101884218D0FFE70598C7
:1026B00044F20001C4F20101884210D0FFE70598FE
:1026C00044F20041C4F20101884208D0FFE70598B6
:1026D00044F60001C4F20101884221D1FFE70298CB
:1026E00020F080000499496940EA81100290029824
:1026F00020F040000499896840EA81100290019816
:1027000020F480600499896940EA81000190019871
:1027100020F400600499C96940EAC1000190FFE714
:10272000019805994860039805998861059804996E
:10273000C968FFF753FE029805990862002006B0A9
:1027400080BD000080B586B0059004910599086AA7
:1027500020F4807008620598006A0290059840682D
:1027600001900598C0690390039820F0030003903E
:1027700003984FF68F71CFF6FE71084004990968EF
:1027800008430390029820F400700499096940EA14
:1027900001200290029820F480700499496840EA70
:1027A00001200290059842F60041C4F201018842DE
:1027B00020D0FFE7059843F20041C4F201018842AE
:1027C00018D0FFE7059844F20001C4F201018842E5
:1027D00010D0FFE7059844F20041C4F2010188429D
:1027E00008D0FFE7059844F60001C4F201018842D1
:1027F00021D1FFE7029820F400600499496940EA7A
:1028000081200290029820F480600499896840EA4F
:1028100081200290019820F480500499896940EA4F
:1028200001100190019820F400500499C96940EA10
:1028300041100190FFE701980599486003980599B8
:10284000C86105980499C968FFF7D8FD02980599F1
:102850000862002006B080BD80B586B00590049166
:102860000599086A20F4805008620598006A029071
:102870000598406801900598C0690390039820F47A
:1028800040700390039848F6FF71CFF6FF6108404F
:102890000499096840EA01200390029820F400504E
:1028A0000499096940EA01300290029820F48050AE
:1028B0000499496840EA01300290059842F60041C7
:1028C000C4F20101884220D0FFE7059843F200419D
:1028D000C4F20101884218D0FFE7059844F20001D4
:1028E000C4F20101884210D0FFE7059844F200418C
:1028F000C4F20101884208D0FFE7059844F60001C0
:10290000C4F20101884221D1FFE7029820F400407F
:102910000499496940EA81300290029820F480408D
:102920000499896840EA81300290019820F480403F
:102930000499896940EA81100190019820F40040CF
:102940000499C96940EAC1100190FFE7019805990F
:10295000486003980599C86105980499C968FFF70C
:1029600055FD029805990862002006B080BD000060
:1029700080B584B0039002910399086A20F48030F6
:1029800008620398006A00900398006D0190019816
:102990004FF68F71CFF6FE7108400299096808431F
:1029A0000190009820F400300299096940EA014042
:1029B0000090009820F480300299496840EA014074
:1029C0000090039842F60041C4F20101884220D0F1
:1029D000FFE7039843F20041C4F20101884218D096
:1029E000FFE7039844F20001C4F20101884210D0CD
:1029F000FFE7039844F20041C4F20101884208D085
:102A0000FFE7039844F60001C4F2010188420BD1AC
:102A1000FFE70398406820F480300299896940EA12
:102A2000012003994860FFE701980399086503981E
:102A30000299C968FFF7F2FC009803990862002028
:102A400004B080BD80B584B0039002910399086AF8
:102A500020F4801008620398006A00900398006DCB
:102A60000190019848F6FF71CFF6FF610840029986
:102A7000096840EA01200190009820F400100299B2
:102A8000096940EA01500090009820F480100299F2
:102A9000496840EA01500090039842F60041C4F2B0
:102AA0000101884220D0FFE7039843F20041C4F2BD
:102AB0000101884218D0FFE7039844F20001C4F2F4
:102AC0000101884210D0FFE7039844F20041C4F2AC
:102AD0000101884208D0FFE7039844F60001C4F2E0
:102AE000010188420BD1FFE70398406820F4802061
:102AF0000299896940EA812003994860FFE70198BB
:102B00000399086503980299C968FFF791FC00983A
:102B100003990862002004B080BD000080B58CB02D
:102B200001200290FEF756FC02200090FEF752FCB6
:102B30000099002005900B900A900990089007904A
:102B4000069006910321039107910A904FF090405F
:102B5000019006A90491FEF70BFE039B059A0499C8
:102B600001984FF0800CCDF818C007930A92FEF739
:102B7000FFFD029B039A04990598069307920A9019
:102B800040F20040C4F60000FEF7F2FD0CB080BD3C
:102B900080B588B0FFF7C2FF01200790FEF750FC18
:102BA00040F20030C4F201000490FEF7BDFF04982B
:102BB00000210191FEF7CCFF01990498FEF7E8FF90
:102BC00004984FF440410291FEF7F0FF0498402131
:102BD0000391FEF7CDFF40F20430C4F201000590EE
:102BE000FEF7A2FF01990598FEF7B2FF019905983B
:102BF000FEF7CEFF02990598FEF7D8FF03990598D6
:102C0000FEF7B6FF40F20830C4F201000690FEF76E
:102C10008BFF01990698FEF79BFF01990698FEF736
:102C2000B7FF02990698FEF7C1FF03990698FEF7D1
:102C30009FFF0498FEF782FF0598FEF77FFF069836
:102C4000FEF77CFF0798FFF741FC08B080BD00004D
:102C500085B004908DED030ACDED020A9DED030AC7
:102C60009DED021A30EE410A8DED010A9DED010A3B
:102C70009FED331A20EE010A049890ED012A90EDA1
:102C8000021A20EE020A30EE010A80ED020A0498D0
:102C900090ED020A90ED041AB4EE410AF1EE10FA3A
:102CA00004DDFFE7049908698860FFE7049890ED68
:102CB000020A90ED041AB1EE411AB4EE410AF1EEA7
:102CC00010FA08DAFFE7049890ED040AB1EE400A22
:102CD00080ED020AFFE79DED010A049890ED002ABD
:102CE00090ED021A20EE020A30EE010A8DED000A84
:102CF0009DED000A049890ED031AB4EE410AF1EE3E
:102D000010FA04DDFFE70498C0680090FFE79DED2E
:102D1000000A049890ED031AB1EE411AB4EE410A8C
:102D2000F1EE10FA08DAFFE7049890ED030AB1EE2D
:102D3000400A8DED000AFFE79DED000A05B07047DF
:102D400017B7513880B5A2B000F0EAF84FF4006030
:102D50000590FEF763FB00200690219020901F90C5
:102D60001E901D90ADF8740040211E9140F64D015B
:102D70001F91209001200290219042F60040C4F261
:102D8000010007901DA9FFF795F80299069A079888
:102D90001C921B921A9219921892179216921592DF
:102DA000602315931691179119921A921B921C92F7
:102DB000189215AA0192FFF7A5FA02990798FFF752
:102DC00033F9019A079810210391FFF79BFA0399B1
:102DD0000798FFF729F9019A07984FF48071049139
:102DE000FFF790FA04990798FFF71EF902990798E0
:102DF000FFF70EFA03990798FFF70AFA0499079864
:102E0000FFF706FA07982021FFF742FB069907987B
:102E1000FFF74EFB09A808903021FDF763FA059BE8
:102E2000069A0798089909934FF480630A930B92C6
:102E300078238DF83030ADF832200D921492FEF7E1
:102E400057FF22B080BD000080B582B042F600403E
:102E5000C4F2010001900021FFF702FB0198FEF788
:102E6000EDFF0198FEF7FEFF02B080BD80B582B095
:102E700042F60040C4F201000190FEF7ADFF019858
:102E8000FEF7BEFF02B080BD7047000080B582B083
:102E90000220FEF75FFCFEF753FCFEF79DFEFFE706
:102EA000FEF7A4FE08B9FFE7FAE703201021552238
:102EB0000023FEF7A3FEFEF7C7FEFEF7BBFEFFE70B
:102EC000FEF7CCFE08B9FFE7FAE70320FEF7F8FEAD
:102ED000FFE7FEF779FE0C2801D0FFE7F9E70020B5
:102EE0000090FEF7C3FE0098FEF7CEFE0098FEF7B6
:102EF000D9FE4FF68060C0F621200190FEF7EEFD6E
:102F00000198FEF7EBFE02B080BD00004EF688513E
:102F1000CEF20001086840F47000086070470000BD
:102F200080B58AB00120FEF743FA02200090FEF738
:102F30003FFA0099002009900890079006900590AC
:102F400004904FF4E06204920591032106910790EA
:102F500008900620019009904FF0904004A902913A
:102F6000FEF706FC029901984FF4C04204920990C2
:102F700040F20040C4F600000390FEF7F9FB02990E
:102F800003984FF40042049204220992FEF7F0FBEA
:102F90000AB080BD80B584B0ADF80E00ADF80C105D
:102FA000ADF80A20BDF80E0040F64E01884205DB60
:102FB000FFE740F64D00ADF80E00FFE7BDF80C004E
:102FC00040F64E01884205DBFFE740F64D00ADF8C4
:102FD0000C00FFE7BDF80A0040F64E01884205DB11
:102FE000FFE740F64D00ADF80A00FFE7BDF80E1010
:102FF00040F64D000090411A42F60040C4F2010034
:103000000190FFF7D3F900990198BDF80C20891AB7
:10301000FFF7DCF900990198BDF80A20891AFFF73B
:10302000E5F904B080BD000081B08DF803009DF982
:103030000300002812D4FFE79DF9031001F01F02DE
:10304000012090404A094EF28011CEF2000141F871
:103050002200BFF34F8FBFF36F8FFFE701B07047C0
:1030600081B08DF803009DF9030000280ED4FFE71E
:103070009DF9031001F01F02012090404A094EF211
:103080000011CEF2000141F82200FFE701B07047C5
:1030900081B08DF803009DF9030000280ED4FFE7EE
:1030A0009DF9031001F01F02012090404A094EF2E1
:1030B0000011CEF2000141F82200FFE701B0704795
:1030C00082B08DF8070000919DF9070000280AD40E
:1030D000FFE7009800019DF907104EF20042CEF282
:1030E000000288540BE0009800019DF8071001F0E1
:1030F0000F014EF61452CEF200028854FFE702B0E0
:103100007047000082B08DF8070000919DF907001C
:1031100000280AD4FFE7009800019DF907104EF23D
:103120000042CEF2000288540BE0009800019DF8A6
:10313000071001F00F014EF61452CEF2000288542F
:10314000FFE702B07047000085B08DED040ACDEDB9
:10315000030A8DED021A019000910498009908600D
:103160000498019908609DED030A009890ED001AFB
:10317000B4EE410AF1EE10FA04DDFFE7039800997E
:103180000860FFE79DED030A019890ED001AB4EE88
:10319000410AF1EE10FA04DAFFE70398019908609A
:1031A000FFE79DED020A009890ED001AB4EE410A87
:1031B000F1EE10FA04DDFFE7029800990860FFE7DE
:1031C0009DED020A019890ED001AB4EE410AF1EE6D
:1031D00010FA04DAFFE7029801990860FFE705B0EA
:1031E0007047000080B582B0002000900190FFF78A
:1031F0004DFEFFF7A7FDFFF7CBFCFDF763F9FDF7E9
:10320000FFFDFDF7FFFBFDF767FAFFF71DFEFDF77A
:10321000C5FB009840F29801C2F2000102220A7038
:103220000022C4F248224A604FF07C520A64C8630C
:10323000FFE740F28412C2F200021068411C1160E4
:1032400046F26761C6F2666150FB01F2D11001EBF4
:10325000D27101EB8101A0EB810000230A281A46FC
:10326000B8BF322218461946FDF782FEFDF7F4FE7C
:103270006420FFF72BF9DCE74100080218BF0420A7
:103280000A0E18BF40F001004FF07F4232EA010100
:1032900008BF40F00200012808BF05207047000069
:1032A00010EE101A08B5444A6846B2EB410F28D90F
:1032B0004FF0E640B0EB410F94BF00204FF0FF30DD
:1032C00000900098002861DB60EE000A10F0010F0A
:1032D00045D010F0020FDFED391A9FED391A00EEDC
:1032E000A11ADFED381A40EE811A21EEA01AF0EE95
:1032F000400A40EE010A08BFF1EE600AB0EE600A33
:1033000008BD314B21F0004293423CD911F0004FEF
:10331000DFED2E0A20EE201ADFED2D0A19BF31EE67
:10332000601A71EE200A31EE201A71EE600ABDEECD
:10333000E01A11EE100A9FED271A00F0030000EECC
:10334000C10A9FED251A009000EEC10A9FED231AD5
:1033500000EEC10A9FED221A00EEC10AB1E79FED0F
:10336000211A9FED210A10F0020F00EE810A9FED55
:103370001F1A00EE801AB7EE000A00EE810A18BF8D
:10338000B1EE400A08BD00F00FF99AE710EE100AFE
:103390004000B0F17F4F3CBFB7EE000A08BD07D137
:1033A0004FF00100FCF7CDFFBDE8084000F0ECB89D
:1033B000BDE8084000F0E4B8B61F927E336D4CB90A
:1033C000DA82083CA0AA2ABE490E494683F9223F68
:1033D0000000004B0000C93F00A0FD390020A233CF
:1033E0001A61342CB93AB2BACA9F2A3DDDFFFFBE3A
:1033F00000B510EE101A2DED028B81B0524A6846CE
:10340000B2EB410F2ED94FF0E640B0EB410F94BF25
:1034100000204FF0FF3000900098B0EE408A002866
:103420006ADB10F0010F4BD068EE080A9FED471AD7
:103430009FED470A00EE810A9FED461A10F0020F39
:1034400000EE801AB7EE000A00EE810A02BF01B05A
:10345000BDEC028B00BD00BF01B0B1EE400ABDEC77
:10346000028B00BD3C4B21F00042934241D911F048
:10347000004FDFED3A0A20EE201ADFED390A19BFBE
:1034800031EE601A71EE200A31EE201A71EE600AF8
:10349000BDEEE01A11EE100A9FED321A00F00300A3
:1034A00000EEC10A9FED301A009000EEC10A9FEDB8
:1034B0002F1A00EEC10A9FED2E1A00EEC10AABE7EB
:1034C00028EE080A9FED2B1ADFED2B0A10F0020FF1
:1034D00040EE010A9FED291A00EE201A61EE000A63
:1034E000B0EE480A08EE200AB6D101B0BDEC028B5E
:1034F00000BD00F059F88FE718EE100A4000B0F157
:103500007F4F0DD218EE100AFFF7B6FE042808BF51
:1035100000F042F8B0EE480A01B0BDEC028B00BDED
:1035200009D10120FCF70DFF01B0BDEC028B5DF865
:1035300004EB00F029B801B0B0EE480ABDEC028BF4
:103540005DF804EB00F01CB8B61F927EB93AB2BA2F
:10355000CA9F2A3DDDFFFFBE490E494683F9223F3F
:103560000000004B0000C93F00A0FD390020A2333D
:103570001A61342C336D4CB9DA82083CA0AA2ABEF9
:1035800030EE000A70470000DFED020A80EEA00A6C
:1035900070470000000000009FED020A20EE000AC4
:1035A00070470000000000102DE9F0014FF07F424D
:1035B000B2EB410F9FBF4FF0FF310160BDE8F0015A
:1035C00070474FF0004242EA0123C1F3C752783AF4
:1035D000551112F01F0C434CCCF120067C44C1F372
:1035E000C752A2F178024FEA621204EB820254F849
:1035F000254008BFD2E9015612D0556804FA0CF4F0
:1036000025FA06F73C43976805FA0CF527FA06F801
:10361000D26807FA0CFCF24045EA08054CEA0206BB
:10362000A4FB034CA5FB0352A6FB03631D449D4270
:1036300034BF012600261319334416B1934202D930
:1036400003E0934201D2012200E00022624402F131
:10365000200C9206DC0C42EA443200EE102A5B0396
:10366000DFED210AF8EEC01A00EE103A4FEA9C1C7A
:1036700011F0004FB8EE400AC0F800C020EE201A4A
:1036800000EE105ADFED190AB8EE400A20EE200ACB
:1036900071EE810A70EE800A10EE902A02F5006247
:1036A0006FF30B0200EE902A70EEE11A31EEC11AB0
:1036B000DFED101A30EE411A9FED0D0A20EE800A60
:1036C00001EE210A9FED0C1A00EE810A04BFBDE84D
:1036D000F0017047CCF180510160BDE8F001B1EE1E
:1036E000400A704738010000000000360000802CBE
:1036F00022AAFD29DB0FC92F0000C92FF1EE100A05
:103700004FF6FF71C0F2C03120EA010040F0407076
:10371000E1EE100A70470000000000006E83F9A27D
:103720002915444ED15727FCC0DD34F5999562DB4D
:103730004190433CAB6351FE081C3044586C081C5C
:103740003044586C000000000404040438380000C1
:1037500000000404040438380000080000000800D9
:10376000000800000800000008000008903700086A
:1037700000000020380000003C020008C8370008A4
:1037800038000020500700005C0200080000000024
:103790000000003F000048420000000000004041DF
:1037A0000000C0400000003F000048420000000050
:1037B000000040410000C0400024F4000008000860
:0837C0000008000000000000F9
:04000005080001D915
:00000001FF
