:020000040800F2
:1000000080070020790200088102000883020008AE
:10001000850200088702000889020008000000002D
:100020000000000000000000000000008B0200083B
:100030008D020008000000008F020008A51C0008C7
:10004000930200089302000893020008930200083C
:10005000930200089302000893020008930200082C
:10006000930200089302000893020008930200081C
:100070009302000875060008930200089302000826
:100080009302000800000000A1030008930200088A
:1000900093020008930200089302000893020008EC
:1000A00093020008930200089302000893020008DC
:1000B00093020008930200089302000893020008CC
:1000C00093020008930200089302000893020008BC
:1000D00093020008930200089302000893020008AC
:1000E000930200089302000893020008930200089C
:1000F0009302000893020008930200080000000029
:1001000000000000930200080000000093020008B5
:100110009302000800000000930200089302000808
:10012000930200089302000893020008930200085B
:100130009302000800000000000000009302000885
:100140009302000893020008000000000000000075
:10015000000000000000000000000000000000009F
:1001600000000000000000000000000093020008F2
:1001700093020008000000000000000000000000E2
:1001800000000000930200080000000000000000D2
:10019000000000000000000000000000000000005F
:1001A0000000000000000000930200089302000815
:1001B0009302000893020008930200080000000068
:1001C0000000000093020008000000000000000092
:1001D000930200089302000800F002F800F03CF8D7
:1001E0000AA090E8000C82448344AAF10107DA4592
:1001F00001D100F031F8AFF2090EBAE80F0013F0A8
:10020000010F18BFFB1A43F00103184788220000B2
:10021000A8220000103A24BF78C878C1FAD8520743
:1002200024BF30C830C144BF04680C607047000070
:100230000023002400250026103A28BF78C1FBD8EF
:10024000520728BF30C148BF0B6070471FB502F08E
:1002500093F81FBD10B510BD00F06CF81146FFF704
:10026000F5FF02F05FF800F08AF803B4FFF7F2FF41
:1002700003BC00F08DF8000009488047094800479A
:10028000FEE7FEE7FEE7FEE7FEE7FEE7FEE7FEE746
:10029000FEE7FEE704480549054A064B70470000A3
:1002A000B11D0008D901000880010020800700204E
:1002B00080030020800300204FF0000200B51346A9
:1002C00094469646203922BFA0E80C50A0E80C5076
:1002D000B1F12001BFF4F7AF090728BFA0E80C5027
:1002E00048BF0CC05DF804EB890028BF40F8042B20
:1002F00008BF704748BF20F8022B11F0804F18BF8D
:1003000000F8012B704770477047704710B500F038
:1003100009F8006810BD10B5044600F003F8046049
:1003200010BD0000004870471C01002000487047C5
:100330001C0100207546FFF7F9FFAE46050069462F
:10034000534620F00700854618B020B5FFF7A2FFFE
:10035000BDE820404FF000064FF000074FF00008C6
:100360004FF0000B21F00701AC46ACE8C009ACE847
:10037000C009ACE8C009ACE8C0098D46704710B5AB
:100380000446AFF300802046BDE81040FFF76DBF84
:1003900001491820ABBEFEE72600020070470000AE
:1003A00070B500BF4FF0A0400068C0F38010D0B31C
:1003B00000BF40204FF0A041086000BF09214FF06E
:1003C000A04000F0DBFD04B20921244800F0D6FD76
:1003D00005B240F20F11214800F0D0FD06B22048CE
:1003E0000088201A00EE100AB8EEC00ADFED1D0AE0
:1003F00020EE200A1C4880ED040A19484088281A7B
:1004000000EE100AB8EEC00ADFED160A20EE200A50
:10041000154880ED050A12488088301A00EE100A4F
:10042000B8EEC00A00E009E0DFED0E0A20EE200A77
:100430000D4880ED060A00F0BFFA00BF00BF4FF084
:10044000A0400068C0F3800030B100BF04204FF02E
:10045000A041086000BF00BF70BD00000001005057
:1004600004000020FF3F4E3DC800002010B50446A8
:1004700000BFA068C0F3007080B900BFA068084941
:100480000840A06000BF00BFA0680649084040F0D7
:100490008050A06000BF012001F07AF810BD00007C
:1004A000C0FFFF5FC0FFFF7F3EB54FF400504D49D6
:1004B000C96C01434B4AD1641146C96C014000919B
:1004C00000BF00BF4FF440304749896821F47C11D8
:1004D0000143454A916000BF444903C9CDE9010188
:1004E000002418E001A951F82400FFF7BFFF01AA7A
:1004F00052F824007F2182683D4B1A40CB071A43F3
:10050000826000BF00BF01A951F824008168C90FB3
:100510000029F8D1641C022CE4DB00214FF0A0403C
:1005200000F085FD80214FF0A04000F04DFD8021BE
:100530004FF0A04000F042FD00214FF0A04000F03D
:1005400028FD2C4A09214FF0A04000F028FD01228F
:1005500028494FF0A04000F056FD0021264800F049
:1005600066FD8021244800F02FFD8021224800F004
:1005700025FD0121204800F00CFD204A09211E48DC
:1005800000F00DFD01221D491B4800F03CFD1C4AF6
:1005900040F20F11184800F002FD012218491648D8
:1005A00000F031FD00BF4FF0A040406840F0400037
:1005B0004FF0A041486000BF12200021002804DB5A
:1005C0000A07130E0F4A135406E00A07150E0E4AC7
:1005D00000F00F031B1FD55400BF122001F039FC9F
:1005E0003EBD00000010024000030050BC23000884
:1005F000C0FFFF3F00209036000100500000214363
:100600000000844B00E400E018ED00E0164890ED97
:10061000020AD0ED030A9FED151A00EE810A80ED63
:10062000020A90ED020ADFED120AB4EEE00AF1EEE2
:1006300010FA07DD90ED020ADFED0D0A30EE600AD8
:1006400080ED020A084890ED020AB5EEC00AF1EE0C
:1006500010FA07D290ED020ADFED050A30EE200A0B
:1006600080ED020A70470000C800002017B751381B
:10067000DB0FC94010B500BF12480068C0F340202E
:10068000F0B100BF4FF400700E49486000BF08464B
:10069000022102460C4B5B5CD35823F001030A4C49
:1006A000645C135100BF00BF0848006820F00100DF
:1006B0000649086000BF0020486200BF0449087076
:1006C00010BD0000000002403C240008004401402E
:1006D0000A0000202DE9FC474FF47A790025002616
:1006E00000271220002817DB00F01F020121914093
:1006F000854A430942F8231000BF00BF00BFBFF383
:100700004F8F00BF00BF00BF00BF00BF00BFBFF3DF
:100710006F8F00BF00BF00BF00BF00BF4FF0A04001
:10072000806800F000400028F8D100BF77480068DA
:1007300000F000400028F9D14FF0A04000F054FC38
:100740007248083800F050FC00BF4FF0A0408068AD
:1007500000F008000028F8D100BF6C48006800F0E5
:1007600008000028F9D14FF0A040C06C20F4C07000
:100770004FF0A041C86465484430006820F4C07060
:10078000C1F84C0100214FF0A04000F01DFC0021F9
:100790005E48083800F018FC4FF0A040806800F078
:1007A000010018B94FF0A04000F0E0FB5748006886
:1007B00000F0010018B95548083800F0D7FB00BF19
:1007C0004FF0A04000F01AFC0028F9D000BF4F48BD
:1007D000083800F013FC0028F9D04FF000084EE074
:1007E00000BF20204FF0A041086000BF084600F085
:1007F000B9FB00BF202045490839086000BF084602
:1008000000F0B0FB4FF0A040806840F008004FF0CF
:10081000A04188600846806801900846C06C00903E
:100820003A48006840F00800C1F80801384C00BFA1
:100830004FF0A040006800F0400010B9601E041E98
:10084000F6D104B91EE0324C00BF304808380068C9
:1008500000F0400010B9601E041EF6D104B911E08A
:100860002A488838006805444FF0A040D0F880013D
:10087000064426487C300068074408F10108B8F5B2
:100880007A7FADDB00BF4FF47A7095FBF0F0214921
:1008900008804FF47A7096FBF0F048804FF47A703D
:1008A00097FBF0F088804FF0A04000F09DFB1748C8
:1008B000083800F099FB80214FF0A04000F084FB45
:1008C00080214FF0A04000F079FB80210F480838CC
:1008D00000F07AFB80210D48083800F06FFB4FF0E4
:1008E000A04000F03FFB0948083800F03BFB122015
:1008F00001F0AFFA4FF0A04000F06CFB034808385D
:1009000000F068FBBDE8FC8780E100E008010050D2
:1009100040420F00040000207CB5104903C9CDE916
:100920000001002416E05DF82450A86800F00100E2
:1009300060B900BF0120286000BF284600F016FB08
:1009400000BF284600F05AFB0028FAD0284600F0E5
:1009500041FB641C022CE6DB7CBD0000C4230008C4
:1009600000200F490870DFED0F0A0846C0ED070AA6
:10097000DFED0D0AC0ED020ADFED0B0AC0ED030A40
:10098000D0ED070A9FED091A60EE810AB0EE600A09
:10099000074880ED030A074880ED030A704700000E
:1009A000C80000209A994941000000003ACD133F49
:1009B0000C0000202000002010B55A4890ED040AD9
:1009C00080ED0B0A90ED040AD0ED050AB0EE001A96
:1009D00001EE200ADFED540A20EE200A80ED0C0A19
:1009E000007802280CD14F4890ED010A80ED030AEF
:1009F000FFF70CFE4B4890ED020A80ED080A18E064
:100A000048480078032807D1FFF700FE454890EDDD
:100A1000020A80ED080A0CE042480078012805D15E
:100A20009FED420A3F4880ED080A02E001F028F9F4
:100A300010BD3C48D0ED080AB0EE600A01F0C2FAE1
:100A4000384880ED090AD0ED080AB0EE600A01F0DE
:100A500011FA344880ED0A0A90ED0B0AD0ED0A0A2B
:100A600020EE200AD0ED0C0A90ED091A00EE810A62
:100A700080ED0D0A90ED0B0AB1EE400AD0ED090AA7
:100A800020EE200AD0ED0C0A90ED0A1A00EE810A41
:100A900080ED0E0A90ED0D1AF0EE410A90ED0F1A5E
:100AA000B0EE410A224800F0F1FF1E4880ED110A25
:100AB00090ED0E1AF0EE410A90ED101AB0EE410AD8
:100AC0001C4800F0E3FF174880ED120A90ED110A70
:100AD000D0ED0A0A20EE200AD0ED120A90ED091A94
:100AE00000EEC10A80ED130A90ED110AD0ED090A5B
:100AF00020EE200AD0ED120A90ED0A1A00EE810ACB
:100B000080ED140AD0ED071AB0EE611AD0ED141A78
:100B1000F0EE610AD0ED131AB0EE610A00F00CF8A5
:100B200000BF85E7C80000203ACD133F0000000059
:100B30000C00002020000020F0B52DED0A8B83B0C2
:100B4000B0EE408AF0EE609AB0EE419AF0EE488A3C
:100B5000BEEE000A28EE000ADFED670A00EEA90AE1
:100B6000B0EE40AABEEE000A28EE000ADFED620AEF
:100B700000EEE90AF0EE40AA01A902A8B0EE6A1A56
:100B8000F0EE4A0AB0EE680A01F0A2FB9DED010A00
:100B9000DDED020A30EE200AFEEE000A20EE200A09
:100BA000B0EE40BA38EE8B0AF0EE408A3AEE0B0A0D
:100BB000B0EE40AA3AEE8B0AF0EE40AA88EE890A1F
:100BC000F6EE000A30EE200AF0EE40BA8AEE090A8C
:100BD000F6EE000A30EE200AB0EE40CA8AEE890A2C
:100BE000F6EE000A30EE200AF0EE40CA9FED430A0E
:100BF000F4EEC0BAF1EE10FA03DD9FED400AF0EE1C
:100C000040BA9FED3F0AF4EEC0BAF1EE10FA03D2FB
:100C10009FED3B0AF0EE40BA9FED380AB4EEC0CA31
:100C2000F1EE10FA03DD9FED350AB0EE40CA9FEDFC
:100C3000340AB4EEC0CAF1EE10FA03D29FED300AC6
:100C4000B0EE40CA9FED2D0AF4EEC0CAF1EE10FAE4
:100C500003DD9FED2A0AF0EE40CA9FED290AF4EE6B
:100C6000C0CAF1EE10FA03D29FED250AF0EE40CA99
:100C70009FED240A2BEE800ABCEEC00A10EE100A8B
:100C800084B29FED200A2CEE000ABCEEC00A10EEE2
:100C9000100A85B29FED1B0A2CEE800ABCEEC00A3A
:100CA00010EE100A86B220462946324640F64D0321
:100CB000984200DD184640F64D03994200DD194682
:100CC00040F64D039A4200DD1A4640F64D073B1AA6
:100CD0000D4F7B6300BF40F64D077B1A0A4FBB6385
:100CE00000BF40F64D07BB1A074FFB6300BF00BFB4
:100CF00003B0BDEC0A8BF0BDD7B35D3F3333733F18
:100D00000AD7233C00D00445002C014030B595B0F3
:100D100002208B49C96C0143894AD1641146C96CD0
:100D20000140019100BF00BF00041146096E01435C
:100D300011661146096E0140019100BF00BF0120FC
:100D400000F07CF9042000F079F918210FA8FFF7D2
:100D5000B3FA10200F900220109003201190002071
:100D600012901390012014900FA9764800F090F98A
:100D700014210AA8FFF7A0FA0020ADF828000B9074
:100D8000D3200C9000200D900E900AA96E4800F020
:100D90009DFA202102A8FFF78FFA6020029001201F
:100DA000039000200690059002AA0121664800F0F9
:100DB000ABFB0121644800F02BFB00BF6248C06818
:100DC00040F480706049C86000BF00BF0846C0683A
:100DD00020F48070C86000BF00BF0846C06840F4BF
:100DE0000070C86000BF5949022052220C464C4096
:100DF000A40AE300564C04EB800454F8234024F08A
:100E0000FF041443524D05EB800545F8234000BF15
:100E100008460221102203464E4C645C1C5944F2E1
:100E20001005AC4314434B4D6D5C5C5100BF002278
:100E300000BF484C645C1C5924F440541443454D95
:100E40006D5C5C5100BF00BF00BF424C645C1C592C
:100E500024F0200414433F4D6D5C5C5100BF00BF83
:100E600000BF3C4C645C1C5924F040041443394DD1
:100E70006D5C5C5100BF802200BF364C645C1C5925
:100E800024F080041443334D6D5C5C5100BF821527
:100E900000BF304C645C1C5924F4407414432D4D45
:100EA0006D5C5C5100BF021500BF2A4C645C1C598C
:100EB00024F440641443274D6D5C5C5100BF224A0A
:100EC000343200BF234C645C1C44A26000BF00BFEE
:100ED0000246204B5B5CD35843F002031D4C645C1C
:100EE000135100BF0D200321002804DB0A07130E55
:100EF000194A135406E00A07140E184A00F00F03AB
:100F00001B1FD45400BF0D2000280DDB00BF00BF05
:100F100000F01F02012191404209920002F1E022FB
:100F2000C2F8001100BF00BF00BF002004E0002194
:100F30000B4A22F81010401C4A28F8DB15B030BDCF
:100F4000001002400004004800440140000002403C
:100F500000080240FE23000800E400E018ED00E075
:100F60003400002040210160704700008168024A7F
:100F70001140491C81607047C0FFFF7F10B50246D9
:100F800002F18000C1F3012400EB8403186880B2F1
:100F900010BDC26C22F003020A43C264704730B530
:100FA000C36C01F01F051F24AC40A34301F01F05D3
:100FB000C2F38464AC402343C36430BDC26C22F4EA
:100FC000C0720A43C2647047C26C22F4FE720A43C4
:100FD000C26470478168034A114041F00801816092
:100FE00070470000C0FFFF7F8168034A114041F055
:100FF0002001816070470000C0FFFF7F0146086844
:1010000000F00100704770B500F11404C1F34065B1
:1010100004EB85031C68C1F304560725B540AC43B7
:10102000C1F3045502FA05F52C431C6070BDC2687B
:1010300022F018020A43C2607047000008B5054953
:10104000896C0143034A91641146896C0140009107
:1010500000BF08BD0010024008B50549C96C014336
:10106000034AD1641146C96C0140009100BF08BD1C
:101070000010024008B50549C96C0143034AD16418
:101080001146C96C0140009100BF08BD001002402C
:10109000F0B502460B46186890FAA0F0B0FA80F45A
:1010A00087E00120A0401D6805EA000100297FD0EB
:1010B0005868012802D0586802281DD198689568A0
:1010C00091FAA1F6B6FA86F677000326BE40B5433C
:1010D00091FAA1F6B6FA86F6760000FA06F63543DE
:1010E000956000BFDD6818685668864300FB05F709
:1010F0003E43566000BF00BF1869D56891FAA1F65B
:10110000B6FA86F677000326BE40B54391FAA1F6FB
:10111000B6FA86F6760000FA06F63543D56000BFCB
:10112000586802282DD1FF2914D85869156A91FAF8
:10113000A1F6B6FA86F6B7000F26BE40B54391FA7F
:10114000A1F6B6FA86F6B60000FA06F63543156241
:1011500000BF16E05869556A0E0A96FAA6F6B6FA66
:1011600086F6B7000F26BE40B5430E0A96FAA6F6DD
:10117000B6FA86F6B60000FA06F63543556200BFA9
:1011800000BF5868156891FAA1F6B6FA86F677009E
:101190000326BE40B54391FAA1F6B6FA86F676006C
:1011A00000FA06F63543156000BF00E000E000BF1E
:1011B000641C1868E04000287FF473AFF0BD4FF462
:1011C0007A71B0FBF1F2521E4FF0E0235A61002217
:1011D0009A6105221A6100BF7047016821F0010180
:1011E00001607047016841F0010101607047000033
:1011F0000268024B1A400A43026070479FF7F9FFEA
:101200000268202323EA51039A430A43026070478D
:10121000026822F00C020A4302607047026822F45E
:10122000E0320A43026070470149086070470000DD
:101230000000002010B503460A460021147B214619
:101240009068014321F48060546840EA040121F46D
:101250000060146840EA040121F48050D48940EA17
:10126000040121F40050146940EA040121F4804093
:10127000D46A40EA040121F47020546940EA040170
:1012800021F08050946940EA04010E48834202D064
:101290000D48834213D121F47000546A40EA0401DE
:1012A00021F08070D46940EA040121F00070146AD2
:1012B00040EA040121F00050946A40EA04015964B4
:1012C000002010BD002C01400034014010B5024642
:1012D0001368294882420BD0B2F1804F08D02748CA
:1012E000824205D02648824202D02648824204D15A
:1012F00023F070004C6840EA04031F48824214D077
:10130000B2F1804F11D01D4882420ED01C4882425B
:101310000BD01C48824208D01B48824205D01B4893
:10132000824202D01A48824204D123F44070CC6831
:1013300040EA040313608868D06200BF08889062A6
:1013400000BF0D4882420BD00E48824208D00E48A2
:10135000824205D00D48824202D00D48824203D11C
:101360000869106300BF00BF00BF506940F0010072
:10137000506100BF002010BD002C0140000400405F
:10138000000800400034014000400140004401409A
:101390000048014070B50246012901D1002425E032
:1013A000042901D1012421E0102901D102241DE0EA
:1013B000402901D1032419E0B1F5807F01D1042433
:1013C00014E0B1F5806F01D105240FE0B1F5805F25
:1013D00001D106240AE0B1F5804F01D1072405E0D0
:1013E000B1F5803F01D1082400E009242346064CD2
:1013F000E55C02F1180428190468044DEE5C04252C
:10140000B540AC43046070BD0A24000814240008F1
:1014100070B50246012901D1002425E0042901D13B
:10142000012421E0102901D102241DE0402901D12D
:10143000032419E0B1F5807F01D1042414E0B1F553
:10144000806F01D105240FE0B1F5805F01D1062442
:101450000AE0B1F5804F01D1072405E0B1F5803FE6
:1014600001D1082400E009242346064CE55C02F182
:10147000180428190468044DEE5C0825B5402C4377
:10148000046070BDCC230008D623000870B5024666
:10149000012901D1002425E0042901D1012421E002
:1014A000102901D102241DE0402901D1032419E0B3
:1014B000B1F5807F01D1042414E0B1F5806F01D132
:1014C00005240FE0B1F5805F01D106240AE0B1F5F3
:1014D000804F01D1072405E0B1F5803F01D10824F8
:1014E00000E009242346064CE55C02F118042819A3
:1014F0000468044DEE5C0825B5402C43046070BDC3
:101500000A240008142400082DE9F04106460C4680
:1015100015460127B4F5805F21D007DC012C0CD0E3
:10152000102C10D0B4F5807F2BD112E0B4F5803FA1
:101530001BD0B4F5801F24D11DE02946304600F0B1
:101540003DF807461EE02946304600F089F8074678
:1015500018E02946304600F0DBF8074612E029463D
:10156000304600F027F907460CE02946304600F0E7
:1015700073F9074606E02946304600F0AFF9074602
:1015800000E000BF00BF3846BDE8F08181637047CE
:1015900008B501464FF0E0221269009200BF0846EC
:1015A000421C02B1401C06E04FF0E022126902F436
:1015B000803202B1401E0028F6D108BD70B5024647
:1015C000106A20F001001062136A5568946924F0D3
:1015D00003041D4E04EA06000E6840EA060423F0E8
:1015E00002000E6940EA060323F001004E6840EA5B
:1015F0000603164882420BD01548824208D015488F
:10160000824205D01448824202D01448824213D14B
:1016100023F008004E6940EA860323F004008E6838
:1016200040EA860325F480708E6940EA060525F4B9
:101630000070CE6940EA460555609461C868506301
:1016400000BF1362002070BD8FFFFEFF002C014021
:101650000034014000400140004401400048014086
:101660002DE9F04104460D46206A20F0100020626A
:10167000266AD4F80480A76927F440771E483840CA
:10168000296840EA012726F02000296940EA01166E
:1016900026F01000696840EA0116184884420BD011
:1016A0001748844208D01748844205D0164884421F
:1016B00002D01648844213D126F08000696940EABE
:1016C000811626F04000A96840EA811628F480605F
:1016D000A96940EA810828F40060E96940EAC10884
:1016E000C4F80480A7612046E968FFF74FFF26622F
:1016F0000020BDE8F0810000FF8FFFFE002C0140BC
:1017000000340140004001400044014000480140D5
:1017100070B50246106A20F480701062136A556832
:10172000D46924F003041D4E04EA06000E6840EA62
:10173000060423F400700E6940EA062323F4807047
:101740004E6840EA0623164882420BD01548824272
:1017500008D01548824205D01448824202D014486D
:10176000824213D123F400604E6940EA862323F4B9
:1017700080608E6840EA862325F480508E6940EAB6
:10178000061525F40050CE6940EA46155560D4612F
:10179000C868D06300BF1362002070BD8FFFFEFFDA
:1017A000002C014000340140004001400044014051
:1017B0000048014070B50246106A20F48050106263
:1017C000136A5568D46924F440741D4820400E689B
:1017D00040EA062423F400500E6940EA063323F45D
:1017E00080504E6840EA0633164882420BD01648B5
:1017F000824208D01548824205D01548824202D064
:101800001448824213D123F400404E6940EA8633E3
:1018100023F480408E6840EA863325F480408E6948
:1018200040EA861525F40040CE6940EAC6155560A9
:10183000D461C868106400BF1362002070BD00004E
:10184000FF8FFFFE002C01400034014000400140AA
:10185000004401400048014030B50246106A20F4BF
:1018600080301062136A146D164D04EA05000D688D
:1018700040EA050423F400300D8A40EA054323F4CE
:1018800080308D8840EA05430F4882420BD00F48D4
:10189000824208D00E48824205D00E48824202D0D1
:1018A0000D48824206D1506820F480308D6940EAAC
:1018B000052050601465C868956C906400BF136281
:1018C000002030BD8FFFFEFF002C0140003401409E
:1018D00000400140004401400048014030B502464C
:1018E000106A20F480101062136A146D15482040AD
:1018F0000D6840EA052423F400100D8A40EA0553E0
:1019000023F480108D8840EA05530F4882420BD0A3
:101910000E48824208D00E48824205D00D488242CD
:1019200002D00D48824206D1506820F480208D6993
:1019300040EA852050601465C868D06400BF136217
:10194000002030BDFF8FFFFE002C0140003401401D
:1019500000400140004401400048014000B587B00C
:101960000120FFF779FB0220FFF776FB182101A881
:10197000FEF7A2FC022001900320029000200590B7
:1019800001A94FF09040FFF783FB802001900320D6
:1019900002900020059001A94FF09040FFF778FBDE
:1019A00001200190032002900020059001A9024827
:1019B000FFF76EFB07B000BD0004004808B5FFF755
:1019C000CDFF01202F49096E01432E4A11661146B1
:1019D000096E0140009100BF00BF2B48FFF7FDFBDF
:1019E00000212948FFF704FC00212748FFF710FCDD
:1019F0004FF440412448FFF711FC40212248FFF7F3
:101A0000FFFB2148001DFFF7E8FB00211E48001DD9
:101A1000FFF7EEFB00211C48001DFFF7F9FB4FF418
:101A200040411948001DFFF7F9FB40211648001DF1
:101A3000FFF7E6FB14480830FFF7CFFB0021124800
:101A40000830FFF7D5FB00210F480830FFF7E0FB17
:101A50004FF440410C480830FFF7E0FB40210A48B2
:101A60000830FFF7CDFB0848FFF7BCFB0648001D18
:101A7000FFF7B8FB04480830FFF7B4FB0120FFF77D
:101A800087FD08BD0010024000030140B0EE401A7F
:101A900031EE602AF0EE421A90ED022ADFED252A9F
:101AA00061EEA22A90ED013A02EE832A80ED022A2D
:101AB00090ED022AD0ED042AB4EEE22AF1EE10FAFB
:101AC00003DD90ED042A80ED022A90ED022AD0ED8C
:101AD000042AF1EE622AB4EEE22AF1EE10FA05D2FF
:101AE00090ED042AB1EE422A80ED022A90ED022AFE
:101AF000D0ED002AB0EE420A01EEA20A90ED032AD0
:101B0000B4EEC02AF1EE10FA03D290ED032AB0EE43
:101B1000420A90ED032AB1EE422AB4EEC02AF1EE59
:101B200010FA05DD90ED032AB1EE422AB0EE420A2A
:101B30007047000017B7513800B59BB000F042F96C
:101B40004FF400604049096E01433F4A1166114657
:101B5000096E0140019100BF00BF142116A8FEF7D5
:101B6000ABFB0020ADF858004020179040F64D0028
:101B700018900020199001201A9016A93348FFF7F9
:101B8000A5FB20210EA8FEF797FB60200E900120F8
:101B90000F901090002012901390149015901190B7
:101BA0000EAA01212948FFF7AFFC01212748FFF7C2
:101BB000F1FB0EAA10212548FFF7A6FC10212348AF
:101BC000FFF7E8FB0EAA4FF480712048FFF79CFC5A
:101BD0004FF480711D48FFF7DDFB01211B48FFF723
:101BE00055FC10211948FFF751FC4FF4807117483C
:101BF000FFF74CFC202015494968154A1140014364
:101C0000124A516000BF00201146496821F470015A
:101C10000143516000BF302102A8FEF74DFB4FF495
:101C200000600290401003900020049078208DF80E
:101C300014000020ADF8160006900D9002A903488C
:101C4000FFF7F8FA1BB000BD00100240002C014065
:101C50008FFFFFFD00200949486200BF00BF084612
:101C6000406C40F40040486400BF00BF0846006874
:101C700040F00100086000BF70470000002C0140E8
:101C800000BF0748406C20F400400549486400BF8D
:101C900000BF0846006820F00100086000BF7047E0
:101CA000002C01407047000070B502203C490968D3
:101CB00021F00F0101433A4A116000BF00BF1046F6
:101CC000006840F480701146086000BF00BF3548CE
:101CD000006840F480303349086000BF00BF00BF97
:101CE00030480068C0F340400028F8D0032010219D
:101CF0005522002340EA010444EA02241C43294DF2
:101D0000ED68294E35402C43264DEC6000BF00BFE6
:101D10002846C06840F080702946C86000BF00BFF8
:101D20000846006840F08070086000BF00BF00BF38
:101D30001C480068C0F340600028F8D0032019490F
:101D4000896821F003010143164A916000BF00BF7A
:101D500000BF1448806800F00C000C28F8D1002067
:101D60001049896821F0F00101430E4A916000BFDB
:101D700000BF1146896821F4E0610143916000BF12
:101D800000BF1146896821F460510143916000BF92
:101D90000648FFF714FA0548FFF746FA70BD000041
:101DA00000200240001002400C80FFF980FE210A52
:101DB0000348006840F47000014908607047000063
:101DC00088ED00E000B587B00120FFF753F902204D
:101DD000FFF750F9182101A8FEF76EFA4FF4E06002
:101DE00001900220029003200390002004900590AF
:101DF0000620069001A94FF09040FFF749F94FF4F3
:101E0000C04001900620069001A90748FFF740F95D
:101E10004FF4004001900420069001A90248FFF70A
:101E200037F907B000BD0000000400484100080277
:101E300018BF04200A0E18BF40F001004FF07F4287
:101E400032EA010108BF40F00200012808BF052066
:101E5000704700280DDB00BF00BF00F01F0201210A
:101E600091404209920002F1E022C2F8001100BF45
:101E700000BF704710EE101A08B5444A6846B2EB2E
:101E8000410F28D94FF0E640B0EB410F94BF00203E
:101E90004FF0FF3000900098002861DB60EE000AF0
:101EA00010F0010F45D010F0020FDFED391A9FED51
:101EB000391A00EEE11ADFED381A40EE811A21EEF0
:101EC000A01AF0EE400A40EE010A08BFF1EE600AE7
:101ED000B0EE600A08BD314B21F0004293423CD97C
:101EE00011F0004FDFED2E0A20EE201ADFED2D0A53
:101EF00019BF31EE601A71EE200A31EE201A71EE30
:101F0000600ABDEEE01A11EE100A9FED271A00F0EC
:101F1000030000EEC10A9FED251A009000EEC10AF1
:101F20009FED231A00EEC10A9FED221A00EEC10AAE
:101F3000B1E79FED211A9FED210A10F0020F00EE8C
:101F4000810A9FED1F1A00EE801AB7EE000A00EE1C
:101F5000810A18BFB1EE400A08BD00F00FF99AE7F8
:101F600010EE100A4000B0F17F4F3CBFB7EE000A00
:101F700008BD07D14FF00100FEF7CDF9BDE80840DC
:101F800000F0ECB8BDE8084000F0E4B8B61F927E5F
:101F9000336D4C39DA82083CA0AA2ABE490E494664
:101FA00083F9223F0000004B0000C93F00A0FD392B
:101FB0000020A2331A61342CB93AB2BACA9F2A3D22
:101FC000DDFFFFBE00B510EE101A2DED028B81B0C3
:101FD000524A6846B2EB410F2ED94FF0E640B0EBC3
:101FE000410F94BF00204FF0FF3000900098B0EEFA
:101FF000408A00286ADB10F0010F4BD068EE080A17
:102000009FED471A9FED470A00EE810A9FED461AA1
:1020100010F0020F00EE801AB7EE000A00EE810AFF
:1020200002BF01B0BDEC028B00BD00BF01B0B1EE3C
:10203000400ABDEC028B00BD3C4B21F000429342B4
:1020400041D911F0004FDFED3A0A20EE201ADFED02
:10205000390A19BF31EE601A71EE200A31EE201AEA
:1020600071EE600ABDEEE01A11EE100A9FED321A11
:1020700000F0030000EEC10A9FED301A009000EE60
:10208000C10A9FED2F1A00EEC10A9FED2E1A00EE35
:10209000C10AABE728EE080A9FED2B1ADFED2B0AE9
:1020A00010F0020F40EE410A9FED291A00EE201AAF
:1020B00061EE000AB0EE480A08EE200AB6D101B07F
:1020C000BDEC028B00BD00F059F88FE718EE100A46
:1020D0004000B0F17F4F0DD218EE100AFFF7A6FEB8
:1020E000042808BF00F042F8B0EE480A01B0BDEC89
:1020F000028B00BD09D10120FEF70DF901B0BDEC46
:10210000028B5DF804EB00F029B801B0B0EE480A8C
:10211000BDEC028B5DF804EB00F01CB8B61F927E9C
:10212000B93AB2BACA9F2A3DDDFFFFBE490E494601
:1021300083F9223F0000004B0000C93F00A0FD3999
:102140000020A2331A61342C336D4C39DA82083CFA
:10215000A0AA2ABE30EE000A70470000DFED020A96
:1021600080EEA00A70470000000000009FED020A08
:1021700020EE000A70470000000000102DE9F00179
:102180004FF07F42B2EB410F9FBF4FF0FF31016034
:10219000BDE8F00170474FF0004242EA0123C1F36D
:1021A000C752783A551112F01F0C434CCCF120065F
:1021B0007C44C1F3C752A2F178024FEA621204EBE9
:1021C000820254F8254008BFD2E9015612D0556862
:1021D00004FA0CF425FA06F73C43976805FA0CF567
:1021E00027FA06F8D26807FA0CFCF24045EA08051F
:1021F0004CEA0206A4FB034CA5FB0352A6FB0363B7
:102200001D449D4234BF012600261319334416B1E4
:10221000934202D903E0934201D2012200E000225E
:10222000624402F1200C9206DC0C42EA443200EED9
:10223000102A5B03DFED210AF8EEC01A00EE103A17
:102240004FEA9C1C11F0004FB8EE400AC0F800C0E5
:1022500020EE201A00EE105ADFED190AB8EE400AFF
:1022600020EE200A71EE810A70EE800A10EE902AAC
:1022700002F500626FF30B0200EE902A70EEE11A95
:1022800031EEC11ADFED101A30EE411A9FED0D0A42
:1022900020EE800A01EE210A9FED0C1A00EE810A61
:1022A00004BFBDE8F0017047CCF180510160BDE88A
:1022B000F001B1EE400A7047C00200000000003695
:1022C0000000802C22AAFD29DB0FC92F0000C92F96
:1022D00081ED000A80ED000AD1ED001AF4EEE01A5B
:1022E000F1EE10FA01D2C1ED000AD0ED001AF4EEC1
:1022F000E01AF1EE10FA01DDC0ED000AD1ED001A8E
:10230000F4EEC11AF1EE10FA01D281ED001AD0ED0F
:10231000001AF4EEC11AF1EE10FA01DD80ED001A98
:1023200070470000FFF7C0FCFFF706FCFFF746FB15
:10233000FEF7BAF8FEF7EAFCFEF712FBFEF7CAF961
:10234000FFF788FCFEF7E8FA0220084908709FEDC5
:10235000080A084680ED010AB6EE000A80ED100A70
:102360009FED040A80ED0F0A00BFFEE7C8000020C1
:1023700000004842000000004FF04070E1EE100AFB
:1023800070470000081C3044586C00000000040432
:1023900004043838000008000000080000080000AD
:1023A000080000000800000000020406080A0C0EE5
:1023B00010140001020304050607080A000000507B
:1023C000000100500000005000010050000000001B
:1023D0000404040438380000080000000800000865
:1023E0000000080000000800000000020406080ABF
:1023F0000C0E10140001020304050607080A081C4D
:102400003044586C081C3044586C00000000040430
:10241000040438380000080000000800000800002C
:10242000080000000800000000020406080A0C0E64
:1024300010140001020304050607080A081C3044B2
:10244000586C000000000404040438380000080040
:10245000000008000008000008000000080000005C
:1024600000020406080A0C0E101400010203040501
:102470000607080A000000006E83F9A22915444EE1
:10248000D15727FCC0DD34F5999562DB4190433C80
:10249000AB6351FEB42400080000002034000000AB
:1024A00014020008E8240008340000204C07000053
:1024B000300200080024F4000008000800080000B2
:1024C0000000003F000048420000000000004041C2
:1024D0000000C0400000003F000048420000000033
:0824E000000040410000C04073
:04000005080001D915
:00000001FF
